S0130000365F617869735F636F64652E73726563CD
S113000071C000008FC000008DC000008BC00000D4
S113001089C0000087C0000085C0000083C00000C4
S113002081C000007FC000007DC000007BC00000D4
S113003079C0000077C0000075C0000073C00000E4
S113004071C000006FC000006DC000006BC00000F4
S113005069C0000067C0000065C0000063C0000004
S113006061C000005FC000005DC000005BC0000014
S113007059C0000057C0000055C0000053C0000024
S113008051C000004FC000004DC000004BC0000034
S113009049C0000047C0000045C0000043C0000044
S11300A041C000003FC000003DC000003BC0000054
S11300B039C0000037C0000035C0000033C0000064
S11300C031C000002FC000002DC000002BC0000074
S11300D029C0000027C0000025C0000023C0000084
S11300E021C0000011241FBECFEFD1E2DEBFCDBF7F
S11300F000E00CBF14E0A0E0B2E0E2EFF2E100E0C7
S11301000BBF02C007900D92A832B107D9F724E0C3
S1130110A8E2B4E001C01D92A137B207E1F718D6F6
S11301200C9477096DCF339906C080917004816077
S11301308093700405C0809170048E7F8093700456
S1130140329906C08091700482608093700405C067
S1130150809170048D7F80937004319906C08091E2
S1130160700484608093700405C0809170048B7F58
S113017080937004309906C08091700488608093E5
S1130180700405C080917004877F80937004359952
S113019006C08091700480618093700405C08091D2
S11301A070048F7E80937004349906C0809170042B
S11301B08062809370040895809170048F7D809391
S11301C0700408958F929F92AF92BF92CF92DF9264
S11301D0EF92FF926B017C0120E030E040E251E4B9
S11301E0CCD7E4D69B01772324F422273327261B7C
S11301F0370BC901880F991F880F991FFC01E4531D
S1130200FD4F80809180A280B38020E030E0A9017E
S1130210C701B601C7D6882344F4A501940160E060
S113022070E0CB015AD64B015C01C501B401FF90CB
S1130230EF90DF90CF90BF90AF909F908F900895F4
S11302402F923F924F925F926F927F928F929F92E2
S1130250AF92BF92CF92DF92EF92FF920F931F93D0
S1130260CF93DF93CDB7DEB7C25AD1090FB6F89456
S1130270DEBF0FBECDBF00E414E0D8016D917D91C7
S11302808D919C9120E030E0A90128D6CB56DF4F18
S1130290688379838A839B83C559D040F80164813C
S11302A075818681978120E030E0A90117D6C75671
S11302B0DF4F688379838A839B83C959D040D801EF
S11302C018966D917D918D919C911B9720E030E063
S11302D040EA51E403D620E030E0A901FFD5C3563B
S11302E0DF4F688379838A839B83CD59D040F8019B
S11302F0648575858685978565DFA5966CAF7DAF2A
S11303008EAF9FAFA597D80150966D917D918D9139
S11303109C91539757DFE5966CAF7DAF8EAF9FAF3F
S1130320E597F80164897589868997894BDFA996D1
S11303306CAF7DAF8EAF9FAFA997D8011C966D911E
S11303407D918D919C911F9720E030E040E251E433
S113035014D72CD69B01772324F422273327261B7A
S1130360370BC901880F991F880F991FFC01E050B2
S1130370FE4F408051806280738060915004709180
S11303805104809152049091530420E030E040E203
S113039051E4F3D60BD69B01772324F42227332789
S11303A0261B370BC901880F991F880F991FFC0161
S11303B0E050FE4F80809180A280B380609154040D
S11303C070915504809156049091570420E030E0D8
S11303D040E251E4D2D6EAD59B01772324F42227C4
S11303E03327261B370BC901880F991F880F991FC4
S11303F0FC01E050FE4FC080D180E280F380A50173
S11304009401C701B601B9D6E9966CAF7DAF8EAF42
S11304109FAFE997A7019601E5966CAD7DAD8EADD2
S11304209FADE597AAD6AD966CAF7DAF8EAF9FAF6B
S1130430AD97A9966CAD7DAD8EAD9FADA997905843
S1130440A30192019AD6E1966CAF7DAF8EAF9FAFB8
S1130450E197AD962CAD3DAD4EAD5FADAD97A59694
S11304606CAD7DAD8EAD9FADA59787D69B01AC01DC
S1130470E1966CAD7DAD8EAD9FADE1972FD5ED9638
S11304806CAF7DAF8EAF9FAFED97A9962CAD3DAD10
S11304904EAD5FADA997A5966CAD7DAD8EAD9FAD0C
S11304A0A5976BD6E1966CAF7DAF8EAF9FAFE1970A
S11304B0A3019201AD966CAD7DAD8EAD9FADAD97B0
S11304C05CD69B01AC01E1966CAD7DAD8EAD9FAD6C
S11304D0E19704D5C358DF4F688379838A839B836C
S11304E0CD57D040A5019401A9966CAD7DAD8EADDC
S11304F09FADA99742D6CF57DF4F688379838A830C
S11305009B83C158D040A9962CAD3DAD4EAD5FAD97
S1130510A997E5966CAD7DAD8EAD9FADE5972DD6D3
S1130520A9966CAF7DAF8EAF9FAFA997A30192013F
S1130530C701B60122D6AD966CAF7DAF8EAF9FAF2B
S1130540AD97A9962CAD3DAD4EAD5FADA997A596DF
S11305506CAD7DAD8EAD9FADA5970FD69B01AC0163
S1130560AD966CAD7DAD8EAD9FADAD97B7D4CB5789
S1130570DF4F688379838A839B83C558D040C70142
S1130580B6019058A5962CAD3DAD4EAD5FADA59787
S1130590F4D56B017C01A3019201A9966CAD7DADEC
S11305A08EAD9FADA997E9D59B01AC01C701B601FA
S11305B095D4C757DF4F688379838A839B83C9584F
S11305C0D040A5019401A5966CAD7DAD8EAD9FADD7
S11305D0A597D3D5C357DF4F688379838A839B83D9
S11305E0CD58D040A3019201C501B401C6D5CF5660
S11305F0DF4F688379838A839B83C159D04008E99C
S113060013E0E0EEF3E0A796FFAFEEAFA7971E016D
S1130610F9E12F0E311C9E012F5F3F4FCF55DF4F65
S113062039832883C15AD040AF963FAF2EAFAF97DE
S1130630E5968CAD9DADAEADBFADE597B058E596F2
S11306408CAF9DAFAEAFBFAFE597D801CD90DD9035
S1130650ED90FC90139714964D905D906D907C9066
S1130660179718968D919D910D90BC91A02DAD96E4
S11306708CAF9DAFAEAFBFAFAD97E9962CAD3DAD9E
S11306804EAD5FADE997C701B60177D5CB56DF4FC5
S1130690288139814A815B81C559D0401FD44B01DF
S11306A05C01ED962CAD3DAD4EAD5FADED97C30154
S11306B0B20163D59B01AC01C501B4010FD44B0158
S11306C05C01C358DF4F288139814A815B81CD5752
S11306D0D040AD966CAD7DAD8EAD9FADAD974DD593
S11306E09B01AC01C501B401F9D3A796EEADFFADF2
S11306F0A7972081318142815381EFD3A5966CAFB6
S11307007DAF8EAF9FAFA597D1016D937D938D93F0
S11307109C931397CF57DF4F288139814A815B819E
S1130720C158D040C701B60128D5C756DF4F28812C
S113073039814A815B81C959D040D0D34B015C01D6
S1130740CB57DF4F288139814A815B81C558D0401E
S1130750C301B20112D59B01AC01C501B401BED3E2
S11307604B015C01C757DF4F288139814A815B8186
S1130770C958D040AD966CAD7DAD8EAD9FADAD97F3
S1130780FCD49B01AC01C501B401A8D3A796EEAD7E
S1130790FFADA79724813581468157819ED34B01B4
S11307A05C01D10114966D937D938D939C9317975F
S11307B0A7019601E5966CAD7DAD8EAD9FADE59735
S11307C0DCD4C356DF4F288139814A815B81CD59FE
S11307D0D04084D36B017C01C357DF4F288139811A
S11307E04A815B81CD58D040C301B201C6D49B017C
S11307F0AC01C701B60172D36B017C01CF56DF4F48
S1130800288139814A815B81C159D040AD966CAD54
S11308107DAD8EAD9FADAD97B0D49B01AC01C7014A
S1130820B6015CD3A796EEADFFADA79720853185C1
S11308304285538552D36B017C01D10118966D9387
S11308407D938D939C931B97A5962CAD3DAD4EAD9A
S11308505FADA597CA01B90190D42B013C01A50154
S11308609401C501B40189D49B01AC01C301B20157
S113087035D34B015C01A7019601C701B6017DD4B4
S11308809B01AC01C501B40129D3DED420E030E0E2
S113089040EF51E422D36B017C01AF96EEADFFAD86
S11308A0AF976193719381939193AF96FFAFEEAF3E
S11308B0AF9720E030E040E050EC74D318160CF011
S11308C050C020E030E040E050E4C701B60151D40C
S11308D088230CF048C0045F1F4FA7962EAD3FAD90
S11308E0A797245F3F4FA7963FAF2EAFA7973CE053
S11308F0230E311C83E0003E180709F0A6CE00E069
S113090010E0CF55DF4FC880D980C15AD040C8010C
S1130910880F991FDC01AC59BB4F7D012D913C918F
S1130920FC01E85AFB4F31832083F60161917191F8
S1130930819191916F012DEB36ED40EB52E41DD482
S113094020E030E040E851E418D430D3D7011196C8
S11309507C936E930F5F1F4F06301105C1F681E043
S113096003C080E001C080E0CE55DF4F0FB6F8949D
S1130970DEBF0FBECDBFDF91CF911F910F91FF90CE
S1130980EF90DF90CF90BF90AF909F908F907F902B
S11309906F905F904F903F902F90089581110FC0FA
S11309A0EBE0F1E0808182608083899AE8E0F1E005
S11309B0808181608083129A159AA29A0895EBE04F
S11309C0F1E080818D7F80838998E8E0F1E0808187
S11309D08E7F808312981598A298089581110EC075
S11309E0611106C0E2E0F1E09081926090831EC044
S11309F0E2E0F1E090819D7F908318C0813071F432
S1130A00611106C0EBE0F1E090819B7F908316C0FA
S1130A10EBE0F1E090819460908310C0823031F477
S1130A20611102C08A9A12C08A9810C0833031F4CE
S1130A30611102C0109812C0109A10C0843031F4B1
S1130A40611102C0139A19C0139817C0853031F48C
S1130A50611102C016981AC0169A18C081110DC0EF
S1130A60E2E0F1E090819160908395E59A95F1F749
S1130A70000090819E7F908312C0813039F4889A5F
S1130A8095E59A95F1F70000889812C0823039F400
S1130A908B9A95E59A95F1F700008B9812C08330F4
S1130AA039F4119A85E58A95F1F7000011980895B3
S1130AB0843039F4149A95E59A95F1F70000149866
S1130AC00895853031F4179A85E58A95F1F7000089
S1130AD0179808955F926F927F928F929F92AF9230
S1130AE0BF92CF92DF92EF92FF920F931F93CF9317
S1130AF0DF93CDB7DEB768970FB6F894DEBF0FBEAD
S1130B00CDBF9EDBA4E6B4E08D919C911197E8E5FE
S1130B10F4E020813181821B930B01969E878D879F
S1130B2012968D919C91139722813381821B930B92
S1130B300197988B8F8714968D919C91159724819A
S1130B403581821B930B01969A8B898B16968D9116
S1130B509C91179726813781821B930B01979C8B5D
S1130B608B8B18968D919C91199720853185821BCA
S1130B70930B01969E8B8D8B1A968D919C911B974E
S1130B8022853385821B930B0197988F8F8BDE010F
S1130B901D96FE01319620E030E0812C912C512CE1
S1130BA0EE24E394F12C08C08114910409F460C08C
S1130BB066246394712C20C0122F8D919D91AC01F9
S1130BC0992324F444275527481B590BBA01419310
S1130BD0519399233CF0C70102C0880F991F1A95BD
S1130BE0E2F7582A8616970608F44B012F5F3F4F09
S1130BF02630310509F7D8CFCE0101966C01E12CDE
S1130C00F12C8701F601A080B180A114B10481F018
S1130C10B3010E2C02C0660F771F0A94E2F7652118
S1130C208E2DDCDEF1E0AF1AB108F601B182A082AC
S1130C30000F111F000F111FF801E05CFB4F8081B2
S1130C409181A281B381F801E85DFB4F8083918398
S1130C50A283B383FFEFEF1AFF0A82E0C80ED11C10
S1130C6096E0E916F10469F6E1E08E1A910821F69E
S1130C7068960FB6F894DEBF0FBECDBFDF91CF915B
S1130C801F910F91FF90EF90DF90CF90BF90AF90A6
S1130C909F908F907F906F905F900895CF93DF9394
S1130CA042DA809170048F33E0F43DDAC0E0D0E0A2
S1130CB08091700490E00C2E02C0959587950A945B
S1130CC0E2F780FD09C060E08C2F88DE87EC90E0BD
S1130CD00197F1F700C000002196C630D10541F715
S1130CE0E0CFC0E0D0E061E080E078DE61E081E068
S1130CF075DE61E082E072DE61E083E06FDE61E078
S1130D0084E06CDE61E085E069DE87EC90E00197C9
S1130D10F1F700C000002196BE0180E090E077D199
S1130D202DEB36ED40EB54E43DD11816E4F6E8E53E
S1130D30F4E01182108213821282158214821782C7
S1130D4016821186108613861286DF91CF9108953C
S1130D50EAE0F1E0808182608083A1E0B1E08C91DF
S1130D6081608C93808182608083819A809A819A49
S1130D70E7E0F1E0808181608083839A80818160F3
S1130D8080830A9A099A0A9A0D9A0C9A0D9A9A9A49
S1130D900F9A9A9A439A429A419A409A459A449A47
S1130DA081E0FCDD7BDF2FEF89E698E12150804074
S1130DB09040E1F700C000000F2E412C512C612C13
S1130DC0FFE37F2EF02D0F2E812C912CA12CFFEB15
S1130DD0BF2EF02DC12CD12C6894EE24E6F8FE2C05
S1130DE000E010E0AFEFB9E628E1A150B0402040A8
S1130DF0E1F700C00000E801CC0FDD1FCC0FDD1FC0
S1130E00C05CDB4F488259826A827B8263DE8FEF4B
S1130E1099E6A8E181509040A040E1F700C00000AD
S1130E2088829982AA82BB8255DEBFEF29E688E1D7
S1130E30B15020408040E1F700C0000018821982C0
S1130E401A821B8247DE0F5F1F4F0330110551F6D4
S1130E509FEFA9E6B8E19150A040B040E1F700C08F
S1130E600000E801CC0FDD1FCC0FDD1FC05CDB4FA1
S1130E70C882D982EA82FB822DDE2FEF89E698E1CF
S1130E80215080409040E1F700C0000080E090E0F5
S1130E90A0E4B0EC88839983AA83BB831BDE9FEF15
S1130EA0A9E6B8E19150A040B040E1F700C00000CD
S1130EB0188219821A821B820DDE0F5F1F4F0630C3
S1130EC0110531F62FEF89E698E1215080409040DA
S1130ED0E1F700C00000E2DE83CF5058BB27AA2709
S1130EE00ED00DC1FED030F003D120F031F49F3F7D
S1130EF011F41EF4F3C00EF4E095E7FBE9C0E92F0A
S1130F000FD180F3BA17620773078407950718F0A7
S1130F1071F49EF527C10EF4E0950B2EBA2FA02D87
S1130F200B01B90190010C01CA01A0011124FF2792
S1130F30591B99F0593F50F4503E68F11A16F0408D
S1130F40A22F232F342F4427585FF3CF469537958C
S1130F502795A795F0405395C9F77EF41F16BA0B51
S1130F60620B730B840BBAF09150A1F0FF0FBB1FFF
S1130F70661F771F881FC2F70EC0BA0F621F731F48
S1130F80841F48F4879577956795B795F7959E3FA5
S1130F9008F0B3CF9395880F08F09927EE0F979533
S1130FA08795089571D008F481E0089504D0689479
S1130FB0B111D9C00895BCD088F09F5790F0B92FD3
S1130FC09927B751A0F0D1F0660F771F881F991F9A
S1130FD01AF0BA95C9F712C0B13081F0C3D0B1E0AC
S1130FE00895C0C0672F782F8827B85F39F0B93FBC
S1130FF0CCF3869577956795B395D9F73EF490959C
S11310008095709561957F4F8F4F9F4F0895E89419
S113101009C097FB3EF490958095709561957F4F3C
S11310208F4F9F4F9923A9F0F92F96E9BB279395EA
S1131030F695879577956795B795F111F8CFFAF4FA
S1131040BB0F11F460FF1BC06F5F7F4F8F4F9F4F2B
S113105016C0882311F096E911C0772321F09EE889
S1131060872F762F05C0662371F096E8862F70E0EF
S113107060E02AF09A95660F771F881FDAF7880FC9
S11310809695879597F90895990F0008550FAA0B1F
S1131090E0E8FEEF16161706E807F907C0F0121687
S11310A01306E407F50798F0621B730B840B950B8A
S11310B039F40A2661F0232B242B252B21F40895DF
S11310C00A2609F4A140A6958FEF811D811D08957C
S11310D097F99F6780E870E060E008959FEF80ECE7
S11310E0089500240A94161617061806090608958A
S11310F000240A9412161306140605060895092EF0
S11311000394000C11F4882352F0BB0F40F4BF2B5E
S113111011F460FF04C06F5F7F4F8F4F9F4F08959E
S113112057FD9058440F551F59F05F3F71F0479594
S1131130880F97FB991F61F09F3F79F08795089579
S1131140121613061406551FF2CF4695F1DF08C098
S1131150161617061806991FF1CF869571056105B5
S113116008940895E894BB2766277727CB0197F95D
S113117008958ADF08F48FEF08950BD0C0CFB1DF54
S113118028F0B6DF18F0952309F0A2CFA7CF1124D9
S1131190EACFC6DFA0F3959FD1F3950F50E0551F1A
S11311A0629FF001729FBB27F00DB11D639FAA27B8
S11311B0F00DB11DAA1F649F6627B00DA11D661F07
S11311C0829F2227B00DA11D621F739FB00DA11D28
S11311D0621F839FA00D611D221F749F3327A00DE2
S11311E0611D231F849F600D211D822F762F6A2F7E
S11311F011249F5750408AF0E1F088234AF0EE0F03
S1131200FF1FBB1F661F771F881F91505040A9F70F
S11312109E3F510570F05CCFA6CF5F3FECF3983E44
S1131220DCF3869577956795B795F795E7959F5F76
S1131230C1F7FE2B880F911D9695879597F9089510
S113124011F40EF44BCF3EC073DFD0F39923D9F3DE
S1131250CEF39F57550B87FF43D00024A0E640EA06
S1131260900180585695979528F4805C660F771FF7
S1131270881F20F026173707480730F4621B730BCA
S1131280840B202931294A2BA695179407942025ED
S113129031254A2758F7660F771F881F20F0261735
S11312A03707480730F4620B730B840B200D311D94
S11312B0411DA09581F7B901842F9158880F969507
S11312C0879508959F3F31F0915020F48795779545
S11312D06795B795880F911D9695879597F9089509
S11312E091505040660F771F881FD2F70895F894E5
S10512F0FFCF2A
S11312F20000803FDEFF7F3F9BFF7F3F15FF7F3F64
S11313026DFE7F3F82FD7F3F65FC7F3F16FB7F3F83
S1131312A5F97F3FF0F77F3F0AF67F3FF1F37F3F66
S1131322A6F17F3F28EF7F3F68EC7F3F85E97F3F4F
S113133271E67F3F2AE37F3FB1DF7F3FF5DB7F3FEB
S113134217D87F3FF6D37F3FB3CF7F3F2ECB7F3F6C
S113135286C67F3F9CC17F3F90BC7F3F41B77F3FA2
S1131362C0B17F3F0CAC7F3F37A67F3F1FA07F3FBA
S1131372D4997F3F57937F3FA88C7F3FC6857F3F99
S1131382B37E7F3F6C777F3FE36F7F3F38687F3F59
S11313925B607F3F4B587F3FF84F7F3F84477F3FDF
S11313A2DE3E7F3FF4357F3FE92C7F3F9A237F3F28
S11313B22A1A7F3F77107F3FA3067F3F0000000079
S11313C27CB8E43A43C9643BC092AB3BDFC0E43B24
S11313D2B1FB0E3CC0922B3CD029483CDFC0643C9C
S11313E2F7AB803C7FF78E3C07439D3C8F8EAB3C32
S11313F216DAB93C9E25C83C2671D63CAEBCE43C08
S11314021C06F33CD2A8003D8ACD073D41F20E3DB5
S11314120518163DBC3C1D3D7461243D2B862B3DB5
S1131422D6A9323D8ECE393D39F2403DF016483DC3
S11314329B3A4F3D465E563DF1815D3D9CA5643D20
S11314423BC86B3DD9EA723D840E7A3D9198803D4A
S11314525A29843DAABA873D734B8B3D3CDC8E3DB1
S1131462056D923DCEFD953D978E993DDA1E9D3DCB
S11314721DAFA03D603FA43DA2CFA73D5F5FAB3D42
S11314821CEFAE3DD87EB23D0000B0C0295CAF4037
S1131492000000000000B040295CAF4000000000E2
S11314A20000F040AE470140000000000000004090
S11314B20000F0C000000000000000C00000F0C006
S11314C2000000000000F0C0AE4701400000000030
S11314D2000040C00000E041000000000000404065
S11314E20000E041000000000000CE41666636C103
S11314F2000000000000B641CDCC84C10000000011
S11315020000B6C1CDCC84C1000000000000CEC1F1
S10B1512666636C1000000000A
S9030000FC
